{
  "contractName": "Certificate",
  "abi": [
    {
      "constant": true,
      "inputs": [
        {
          "internalType": "address",
          "name": "",
          "type": "address"
        },
        {
          "internalType": "string",
          "name": "",
          "type": "string"
        }
      ],
      "name": "certificates",
      "outputs": [
        {
          "internalType": "string",
          "name": "userName",
          "type": "string"
        },
        {
          "internalType": "string",
          "name": "id",
          "type": "string"
        },
        {
          "internalType": "string",
          "name": "cgpa",
          "type": "string"
        },
        {
          "internalType": "string",
          "name": "courseName",
          "type": "string"
        },
        {
          "internalType": "string",
          "name": "issuingAuthority",
          "type": "string"
        },
        {
          "internalType": "uint256",
          "name": "issueDate",
          "type": "uint256"
        },
        {
          "internalType": "address",
          "name": "user",
          "type": "address"
        },
        {
          "internalType": "bool",
          "name": "isAdded",
          "type": "bool"
        }
      ],
      "payable": false,
      "stateMutability": "view",
      "type": "function"
    },
    {
      "constant": false,
      "inputs": [
        {
          "internalType": "string",
          "name": "_userName",
          "type": "string"
        },
        {
          "internalType": "string",
          "name": "_id",
          "type": "string"
        },
        {
          "internalType": "string",
          "name": "_cgpa",
          "type": "string"
        },
        {
          "internalType": "string",
          "name": "_courseName",
          "type": "string"
        },
        {
          "internalType": "string",
          "name": "_issuingAuthority",
          "type": "string"
        },
        {
          "internalType": "uint256",
          "name": "_issueDate",
          "type": "uint256"
        },
        {
          "internalType": "address",
          "name": "_user",
          "type": "address"
        }
      ],
      "name": "addCertificate",
      "outputs": [],
      "payable": false,
      "stateMutability": "nonpayable",
      "type": "function"
    },
    {
      "constant": true,
      "inputs": [
        {
          "internalType": "address",
          "name": "_user",
          "type": "address"
        },
        {
          "internalType": "string",
          "name": "_id",
          "type": "string"
        }
      ],
      "name": "getCertificate",
      "outputs": [
        {
          "internalType": "string",
          "name": "",
          "type": "string"
        },
        {
          "internalType": "string",
          "name": "",
          "type": "string"
        },
        {
          "internalType": "string",
          "name": "",
          "type": "string"
        },
        {
          "internalType": "string",
          "name": "",
          "type": "string"
        },
        {
          "internalType": "uint256",
          "name": "",
          "type": "uint256"
        }
      ],
      "payable": false,
      "stateMutability": "view",
      "type": "function"
    }
  ],
  "bytecode": "0x608060405234801561001057600080fd5b506119d8806100206000396000f3fe608060405234801561001057600080fd5b50600436106100415760003560e01c806326bf0f031461004657806363e7e85b146102e5578063b287960a1461062e575b600080fd5b61011f6004803603604081101561005c57600080fd5b81019080803573ffffffffffffffffffffffffffffffffffffffff1690602001909291908035906020019064010000000081111561009957600080fd5b8201836020820111156100ab57600080fd5b803590602001918460018302840111640100000000831117156100cd57600080fd5b91908080601f016020809104026020016040519081016040528093929190818152602001838380828437600081840152601f19601f82011690508083019250505050505050919291929050505061096f565b604051808060200180602001806020018060200186815260200185810385528a818151815260200191508051906020019080838360005b83811015610171578082015181840152602081019050610156565b50505050905090810190601f16801561019e5780820380516001836020036101000a031916815260200191505b50858103845289818151815260200191508051906020019080838360005b838110156101d75780820151818401526020810190506101bc565b50505050905090810190601f1680156102045780820380516001836020036101000a031916815260200191505b50858103835288818151815260200191508051906020019080838360005b8381101561023d578082015181840152602081019050610222565b50505050905090810190601f16801561026a5780820380516001836020036101000a031916815260200191505b50858103825287818151815260200191508051906020019080838360005b838110156102a3578082015181840152602081019050610288565b50505050905090810190601f1680156102d05780820380516001836020036101000a031916815260200191505b50995050505050505050505060405180910390f35b6103be600480360360408110156102fb57600080fd5b81019080803573ffffffffffffffffffffffffffffffffffffffff1690602001909291908035906020019064010000000081111561033857600080fd5b82018360208201111561034a57600080fd5b8035906020019184600183028401116401000000008311171561036c57600080fd5b91908080601f016020809104026020016040519081016040528093929190818152602001838380828437600081840152601f19601f820116905080830192505050505050509192919290505050610f4d565b6040518080602001806020018060200180602001806020018981526020018873ffffffffffffffffffffffffffffffffffffffff1673ffffffffffffffffffffffffffffffffffffffff1681526020018715151515815260200186810386528e818151815260200191508051906020019080838360005b83811015610450578082015181840152602081019050610435565b50505050905090810190601f16801561047d5780820380516001836020036101000a031916815260200191505b5086810385528d818151815260200191508051906020019080838360005b838110156104b657808201518184015260208101905061049b565b50505050905090810190601f1680156104e35780820380516001836020036101000a031916815260200191505b5086810384528c818151815260200191508051906020019080838360005b8381101561051c578082015181840152602081019050610501565b50505050905090810190601f1680156105495780820380516001836020036101000a031916815260200191505b5086810383528b818151815260200191508051906020019080838360005b83811015610582578082015181840152602081019050610567565b50505050905090810190601f1680156105af5780820380516001836020036101000a031916815260200191505b5086810382528a818151815260200191508051906020019080838360005b838110156105e85780820151818401526020810190506105cd565b50505050905090810190601f1680156106155780820380516001836020036101000a031916815260200191505b509d505050505050505050505050505060405180910390f35b61096d600480360360e081101561064457600080fd5b810190808035906020019064010000000081111561066157600080fd5b82018360208201111561067357600080fd5b8035906020019184600183028401116401000000008311171561069557600080fd5b91908080601f016020809104026020016040519081016040528093929190818152602001838380828437600081840152601f19601f820116905080830192505050505050509192919290803590602001906401000000008111156106f857600080fd5b82018360208201111561070a57600080fd5b8035906020019184600183028401116401000000008311171561072c57600080fd5b91908080601f016020809104026020016040519081016040528093929190818152602001838380828437600081840152601f19601f8201169050808301925050505050505091929192908035906020019064010000000081111561078f57600080fd5b8201836020820111156107a157600080fd5b803590602001918460018302840111640100000000831117156107c357600080fd5b91908080601f016020809104026020016040519081016040528093929190818152602001838380828437600081840152601f19601f8201169050808301925050505050505091929192908035906020019064010000000081111561082657600080fd5b82018360208201111561083857600080fd5b8035906020019184600183028401116401000000008311171561085a57600080fd5b91908080601f016020809104026020016040519081016040528093929190818152602001838380828437600081840152601f19601f820116905080830192505050505050509192919290803590602001906401000000008111156108bd57600080fd5b8201836020820111156108cf57600080fd5b803590602001918460018302840111640100000000831117156108f157600080fd5b91908080601f016020809104026020016040519081016040528093929190818152602001838380828437600081840152601f19601f82011690508083019250505050505050919291929080359060200190929190803573ffffffffffffffffffffffffffffffffffffffff1690602001909291905050506112dd565b005b60608060608060006109b56040518060400160405280600781526020017f496e206865726500000000000000000000000000000000000000000000000000815250611733565b600073ffffffffffffffffffffffffffffffffffffffff168773ffffffffffffffffffffffffffffffffffffffff161415610a58576040517f08c379a000000000000000000000000000000000000000000000000000000000815260040180806020018281038252601e8152602001807f557365722061646472657373206d757374206e6f7420626520656d707479000081525060200191505060405180910390fd5b600086511415610ab3576040517f08c379a00000000000000000000000000000000000000000000000000000000081526004018080602001828103825260218152602001806119836021913960400191505060405180910390fd5b610abb61185a565b6000808973ffffffffffffffffffffffffffffffffffffffff1673ffffffffffffffffffffffffffffffffffffffff168152602001908152602001600020876040518082805190602001908083835b60208310610b2d5780518252602082019150602081019050602083039250610b0a565b6001836020036101000a038019825116818451168082178552505050505050905001915050908152602001604051809103902060405180610100016040529081600082018054600181600116156101000203166002900480601f016020809104026020016040519081016040528092919081815260200182805460018160011615610100020316600290048015610c055780601f10610bda57610100808354040283529160200191610c05565b820191906000526020600020905b815481529060010190602001808311610be857829003601f168201915b50505050508152602001600182018054600181600116156101000203166002900480601f016020809104026020016040519081016040528092919081815260200182805460018160011615610100020316600290048015610ca75780601f10610c7c57610100808354040283529160200191610ca7565b820191906000526020600020905b815481529060010190602001808311610c8a57829003601f168201915b50505050508152602001600282018054600181600116156101000203166002900480601f016020809104026020016040519081016040528092919081815260200182805460018160011615610100020316600290048015610d495780601f10610d1e57610100808354040283529160200191610d49565b820191906000526020600020905b815481529060010190602001808311610d2c57829003601f168201915b50505050508152602001600382018054600181600116156101000203166002900480601f016020809104026020016040519081016040528092919081815260200182805460018160011615610100020316600290048015610deb5780601f10610dc057610100808354040283529160200191610deb565b820191906000526020600020905b815481529060010190602001808311610dce57829003601f168201915b50505050508152602001600482018054600181600116156101000203166002900480601f016020809104026020016040519081016040528092919081815260200182805460018160011615610100020316600290048015610e8d5780601f10610e6257610100808354040283529160200191610e8d565b820191906000526020600020905b815481529060010190602001808311610e7057829003601f168201915b50505050508152602001600582015481526020016006820160009054906101000a900473ffffffffffffffffffffffffffffffffffffffff1673ffffffffffffffffffffffffffffffffffffffff1673ffffffffffffffffffffffffffffffffffffffff1681526020016006820160149054906101000a900460ff161515151581525050905080600001518160400151826080015183606001518460a0015184945083935082925081915095509550955095509550509295509295909350565b60006020528160005260406000208180516020810182018051848252602083016020850120818352809550505050505060009150915050806000018054600181600116156101000203166002900480601f01602080910402602001604051908101604052809291908181526020018280546001816001161561010002031660029004801561101c5780601f10610ff15761010080835404028352916020019161101c565b820191906000526020600020905b815481529060010190602001808311610fff57829003601f168201915b505050505090806001018054600181600116156101000203166002900480601f0160208091040260200160405190810160405280929190818152602001828054600181600116156101000203166002900480156110ba5780601f1061108f576101008083540402835291602001916110ba565b820191906000526020600020905b81548152906001019060200180831161109d57829003601f168201915b505050505090806002018054600181600116156101000203166002900480601f0160208091040260200160405190810160405280929190818152602001828054600181600116156101000203166002900480156111585780601f1061112d57610100808354040283529160200191611158565b820191906000526020600020905b81548152906001019060200180831161113b57829003601f168201915b505050505090806003018054600181600116156101000203166002900480601f0160208091040260200160405190810160405280929190818152602001828054600181600116156101000203166002900480156111f65780601f106111cb576101008083540402835291602001916111f6565b820191906000526020600020905b8154815290600101906020018083116111d957829003601f168201915b505050505090806004018054600181600116156101000203166002900480601f0160208091040260200160405190810160405280929190818152602001828054600181600116156101000203166002900480156112945780601f1061126957610100808354040283529160200191611294565b820191906000526020600020905b81548152906001019060200180831161127757829003601f168201915b5050505050908060050154908060060160009054906101000a900473ffffffffffffffffffffffffffffffffffffffff16908060060160149054906101000a900460ff16905088565b600015156000808373ffffffffffffffffffffffffffffffffffffffff1673ffffffffffffffffffffffffffffffffffffffff168152602001908152602001600020876040518082805190602001908083835b602083106113535780518252602082019150602081019050602083039250611330565b6001836020036101000a038019825116818451168082178552505050505050905001915050908152602001604051809103902060060160149054906101000a900460ff161515146113ef576040517f08c379a000000000000000000000000000000000000000000000000000000000815260040180806020018281038252602681526020018061195d6026913960400191505060405180910390fd5b60008060008373ffffffffffffffffffffffffffffffffffffffff1673ffffffffffffffffffffffffffffffffffffffff168152602001908152602001600020876040518082805190602001908083835b602083106114635780518252602082019150602081019050602083039250611440565b6001836020036101000a038019825116818451168082178552505050505050905001915050908152602001604051809103902060010180546001816001161561010002031660029004905014611521576040517f08c379a000000000000000000000000000000000000000000000000000000000815260040180806020018281038252601d8152602001807f4365727469666963617465206964206d75737420626520656d7074792e00000081525060200191505060405180910390fd5b61152961185a565b6040518061010001604052808981526020018881526020018781526020018681526020018581526020018481526020018373ffffffffffffffffffffffffffffffffffffffff168152602001600115158152509050806000808473ffffffffffffffffffffffffffffffffffffffff1673ffffffffffffffffffffffffffffffffffffffff168152602001908152602001600020886040518082805190602001908083835b602083106115f157805182526020820191506020810190506020830392506115ce565b6001836020036101000a038019825116818451168082178552505050505050905001915050908152602001604051809103902060008201518160000190805190602001906116409291906118b7565b50602082015181600101908051906020019061165d9291906118b7565b50604082015181600201908051906020019061167a9291906118b7565b5060608201518160030190805190602001906116979291906118b7565b5060808201518160040190805190602001906116b49291906118b7565b5060a0820151816005015560c08201518160060160006101000a81548173ffffffffffffffffffffffffffffffffffffffff021916908373ffffffffffffffffffffffffffffffffffffffff16021790555060e08201518160060160146101000a81548160ff0219169083151502179055509050505050505050505050565b61182e816040516024018080602001828103825283818151815260200191508051906020019080838360005b8381101561177a57808201518184015260208101905061175f565b50505050905090810190601f1680156117a75780820380516001836020036101000a031916815260200191505b50925050506040516020818303038152906040527f41304fac000000000000000000000000000000000000000000000000000000007bffffffffffffffffffffffffffffffffffffffffffffffffffffffff19166020820180517bffffffffffffffffffffffffffffffffffffffffffffffffffffffff8381831617835250505050611831565b50565b60008151905060006a636f6e736f6c652e6c6f679050602083016000808483855afa5050505050565b604051806101000160405280606081526020016060815260200160608152602001606081526020016060815260200160008152602001600073ffffffffffffffffffffffffffffffffffffffff1681526020016000151581525090565b828054600181600116156101000203166002900490600052602060002090601f016020900481019282601f106118f857805160ff1916838001178555611926565b82800160010185558215611926579182015b8281111561192557825182559160200191906001019061190a565b5b5090506119339190611937565b5090565b61195991905b8082111561195557600081600090555060010161193d565b5090565b9056fe4365727469666963617465206d757374206e6f7420626520616c72656164792061646465642e4365727469666963617465206964206d757374206e6f7420626520656d7074792ea265627a7a72315820f575df545fbe89dc989f170135f3d025380966ecae7fe78435f7597d5f6864fb64736f6c63430005100032",
  "source": "pragma solidity >=0.5.0;\r\n\r\nimport \"hardhat-console/contracts/console.sol\";\r\n\r\ncontract Certificate {\r\n\r\n    /** Struct */\r\n\r\n    struct Cert {\r\n        string userName;\r\n        string id;\r\n        // string blockid;\r\n        string cgpa;\r\n        string courseName;\r\n        string issuingAuthority;\r\n        uint256 issueDate;\r\n        address user;\r\n        bool isAdded;\r\n    }\r\n\r\n\r\n    /** Mappings */\r\n\r\n    /** Mapping for certificates */\r\n    mapping (address => mapping(string => Cert)) public certificates;\r\n\r\n    /** Public functions */\r\n\r\n    function addCertificate(\r\n        string memory _userName,\r\n        string memory _id,\r\n        string memory _cgpa,\r\n        string memory _courseName,\r\n        string memory _issuingAuthority,\r\n        uint256 _issueDate,\r\n        address _user\r\n    ) public{\r\n        require(\r\n            certificates[_user][_id].isAdded == false,\r\n            \"Certificate must not be already added.\"\r\n        );\r\n\r\n        require(\r\n            bytes(certificates[_user][_id].id).length == 0,\r\n            \"Certificate id must be empty.\"\r\n        );\r\n\r\n        Cert memory cert = Cert({\r\n            userName: _userName,\r\n            id: _id,\r\n            // blockid: '',\r\n            cgpa: _cgpa,\r\n            courseName: _courseName,\r\n            issuingAuthority: _issuingAuthority,\r\n            issueDate: _issueDate,\r\n            user: _user,\r\n            isAdded: true\r\n        });\r\n\r\n        certificates[_user][_id] = cert;\r\n        // certificates[_to][_id]=cert;\r\n    }\r\n\r\n    // function addblockid(string memory _blockid,address _user, string memory _id) internal{\r\n  \r\n    //       certificates[_user][_id].blockid=_blockid;\r\n    // }\r\n\r\n    function getCertificate(address _user, string memory _id)\r\n        public \r\n        view\r\n        returns(string memory, string memory, string memory,string memory,uint256) {\r\n            console.log(\"In here\");\r\n            require(\r\n                _user != address(0),\r\n                \"User address must not be empty\"\r\n            );\r\n            require(\r\n                bytes(_id).length != 0,\r\n                \"Certificate id must not be empty.\"\r\n            );\r\n            Cert memory cert=certificates[_user][_id];\r\n            return (\r\n                cert.userName,\r\n                cert.cgpa,\r\n                cert.issuingAuthority,\r\n                cert.courseName,\r\n                cert.issueDate\r\n            );\r\n}\r\n}\r\n",
  "sourcePath": "C:\\Users\\Dhanya\\Desktop\\sh\\certificate-verification-dapp\\contracts\\Certificate.sol",
  "compiler": {
    "name": "solc",
    "version": "0.5.16+commit.9c3226ce.Emscripten.clang"
  },
  "schemaVersion": "3.4.11",
  "updatedAt": "2022-12-19T03:45:27.980Z",
  "networkType": "ethereum",
  "devdoc": {
    "methods": {}
  },
  "userdoc": {
    "methods": {
      "addCertificate(string,string,string,string,string,uint256,address)": {
        "notice": "Public functions "
      }
    }
  }
}